:100000000C9434000C9451000C9451000C94510049
:100010000C9451000C9451000C9451000C9451001C
:100020000C9451000C9451000C9451000C9451000C
:100030000C9451000C9451000C9451000C945100FC
:100040000C9451000C9451000C9451000C945100EC
:100050000C9451000C9451000C9451000C945100DC
:100060000C9451000C94510011241FBECFEFD8E026
:10007000DEBFCDBF11E0A0E0B1E0E4ECF2E002C0F1
:1000800005900D92A830B107D9F721E0A8E0B1E0C2
:1000900001C01D92A830B207E1F70E9470000C94D5
:1000A00060010C94000088E48093B800ECEBF0E071
:1000B0008081846080830895ECEBF0E08081882368
:1000C000ECF7089584EA8093BC000E945C000895D8
:1000D0008093BB0084E88093BC000E945C0008957C
:1000E0000E94F40081E091E00E944A01FFCF80FF6E
:1000F00006C09091000190619093000105C090911D
:1001000000019F7E9093000181FF06C09091000145
:1001100090629093000105C0909100019F7D9093A3
:10012000000182FF06C0909100019064909300014D
:1001300005C0909100019F7B9093000183FF06C052
:100140008091000180688093000105C080910001CA
:100150008F7780930001613031F4809100018160DC
:100160008093000105C0809100018E7F8093000183
:10017000809100010E9468008FE891E00197F1F7FB
:1001800000C00000809100018B7F809300010E94DD
:10019000680095E09A95F1F7000080910001846075
:1001A000809300010E94680085E08A95F1F70000C5
:1001B000809100018B7F809300010E9468008FE88E
:1001C00091E00197F1F700C000000895CF93C82F88
:1001D00060E082958F700E94770060E08C2F8F70B6
:1001E0000E947700CF9108950E9453000E94620000
:1001F0008EE40E9468008FE19EE40197F1F700C051
:10020000000060E083E00E9477008FE19EE40197A8
:10021000F1F700C0000060E083E00E9477008FE308
:100220009CE90197F1F700C0000060E083E00E94C4
:1002300077008FE891E00197F1F700C0000060E0DF
:1002400082E00E9477008FE891E00197F1F700C00B
:10025000000088E20E94E60084E00E94E6008FE051
:100260000E94E60081E00E94E6008FE39FE1019793
:10027000F1F700C000000895CF93C82F61E0829588
:100280008F700E94770061E08C2F8F700E94770042
:10029000CF9108950F931F93CF93FC018081882302
:1002A00059F08F01C0E00E943C01CF5FF801EC0FD4
:1002B000F11D80818111F7CFCF911F910F9108958A
:0402C000F894FFCFE0
:0802C4000848454C4C4F0000B6
:00000001FF
